:020000021000EC
:10E0000045C0000062C0000060C000005EC00000AB
:10E010005CC000005AC0000058C0000056C000009C
:10E0200054C0000052C0000050C000004EC00000AC
:10E030004CC000004AC00000A5C6000046C0000059
:10E0400044C0000042C0000040C000003EC00000CC
:10E050003CC000003AC0000038C0000036C00000DC
:10E0600034C0000032C0000030C000002EC00000EC
:10E070002CC000002AC0000028C0000026C00000FC
:10E0800024C0000022C0000020C0000011241FBED8
:10E09000CFEFD0E1DEBFCDBF11E0A0E0B1E0E4EF13
:10E0A000F7EF01E00BBF02C007900D92A630B10759
:10E0B000D9F713E0A6E0B1E001C01D92AC39B10779
:10E0C000E1F70E9426FB0C94F8FB9ACF82E28BBB0F
:10E0D00087E78ABB81E688BB87EF87BB15BA8DEFE0
:10E0E00084BB12BA88E081BB13B882E082B9109277
:10E0F00062008FEF809361000895C098962F9F7102
:10E10000982B9FB9779BFECF1FB8779BFECF67FDFB
:10E1100003C0C09A8FB108951FB8779BFECFF9CF87
:10E12000C0986F71682B6FB9779BFECF4FB9779B03
:10E13000FECFC09A08951F93CF93DF93182F1076C8
:10E14000C12FD0E02091080130E0C217D30779F049
:10E1500043E06FE180EAE4DFAE0185E05595479545
:10E160008A95E1F76FE180E8DBDF10930801DF912A
:10E17000CF911F9108951F93CF93DF931F92CDB737
:10E18000DEB7182F6983D7DF4981612F80E40F90B4
:10E19000DF91CF911F91C4CFCF93DF93EC01B89A59
:10E1A000C09A87B3866087BBBB98C298C19880E548
:10E1B0008DB9709A4FEF60E08FEFB2DF10920701D8
:10E1C0001092060160E070E088E0D5DF60E070E06A
:10E1D00089E0D1DF6EEF70E08AE0CDDF69E170E0C9
:10E1E0008BE0C9DF6FEF70E084E0C5DF69E170E0CC
:10E1F00085E0C1DF6FEF70E086E0BDDF6FE170E0CA
:10E2000087E0B9DF61EB70E088E3B5DF6FE370E0D2
:10E2100088E2B1DF60E370E089E2ADDF69EF70E0D2
:10E2200080E3A9DF67EF70E081E3A5DF6DE070E0D8
:10E2300080ECA1DF60E070E081EC9DDF42E362EC06
:10E2400080E86EDF62E170E086EC95DF6CE070E004
:10E2500087EC91DF62E170E084EC8DDF6CED70E0C3
:10E260008AEC89DF65E070E08BEC85DF688170E027
:10E2700084EE81DF698170E085EE7DDF6A8170E088
:10E2800082EE79DF6B8170E083EE75DF6C8170E088
:10E2900080EE71DF6D8170E081EE6DDF8FE14BDF2D
:10E2A00044E06FE180E8DF91CF913ACFDF92EF92C7
:10E2B000FF920F931F93CF93DF938C017B0189E330
:10E2C0003ADF69E380E019DF882309F475C0C09163
:10E2D0000601D0910701BE01772780E04CDF6D2F4A
:10E2E00070E081E048DF60E08AE307DFC82F60E08C
:10E2F0008AE303DF2C2F30E0382B30930701209383
:10E30000060160E08AE3F9DEC82F60E08AE3F5DE0B
:10E31000D82E60E08AE3F1DED82F60E08AE3EDDEFC
:10E32000D7FF21C0C0988AE38FB9779BFECFB70192
:10E3300061507109D0E0DD2924976C177D0708F43E
:10E34000EB01C8018C0F9D1F0817190741F01FB87A
:10E35000779BFECF2FB1F80121938F01F5CFF80104
:10E360001082C09A02C0C0E0D0E000910601109176
:10E370000701B80177278CE0FEDE612F70E08DE0A9
:10E38000FADE015011090F3FF9E11F0738F06EEF77
:10E3900070E08CE0F0DE69E170E006C0B80177273C
:10E3A0008CE0E9DE612F70E08DE0E5DE40E46EE1B7
:10E3B00080E8B6DECE0102C080E090E0DF91CF9130
:10E3C0001F910F91FF90EF90DF900895EF92FF92D1
:10E3D0000F931F93CF93DF93EC018B016FE180E0EC
:10E3E0008CDE83FF10C08CE1A6DE6CE180E085DE70
:10E3F00081FFF4CF40E86FE180E892DE40E86FE112
:10E4000080EA8EDEEBCF6FEF70E082E0B4DE69E190
:10E4100070E083E0B0DE780181E0E81A86EEF80A69
:10E42000B701772786E0A7DE6F2D70E087E0A3DED7
:10E4300040E060E08AE774DEC0988AE78FB9779B96
:10E44000FECF0C0F1D1FC017D10729F089918FB97E
:10E45000779BFECFF8CFC09A48E06FE180E8DF916C
:10E46000CF911F910F91FF90EF905ACECF93DF93F2
:10E47000E0E0F0E0E617F70751F0EC01A991B9915F
:10E48000CE012A0F3B1F411D511D3196F3CFCA010A
:10E49000AA27BB270097A105B10539F044275527C6
:10E4A000280F391F4A1F5B1FF2CFCA01B901DF9144
:10E4B000CF910895382F292FEEE0F1E080E090E031
:10E4C000408151812417350739F4880F991F880F2F
:10E4D000991F825F9E4F0895019634968A30910568
:10E4E00079F780E090E008954F925F926F927F926B
:10E4F0008F929F92AF92BF92CF92DF92EF92FF9254
:10E500000F931F93CF93DF93CDB7DEB766970FB608
:10E51000F894DEBF0FBECDBF498B5A8B6B8B7C8BC3
:10E520008D8B9E8B49A55AA58DB79EB70F970FB6B9
:10E53000F8949EBF0FBE8DBF02968E7F66E0FE01EF
:10E540007196DC0101900D926A95E1F766E0EAE3CD
:10E55000F1E0DC01169601900D926A95E1F7FC015D
:10E56000358724879A8789871C870B87DE86CD8627
:10E57000988A8F868EE090E09A838983FC82EB8272
:10E58000BE82AD8258874F83CE0101967C015E0129
:10E5900099E0A90EB11C250100E010E03CE9C32E72
:10E5A00031E0D32E4CE9642E43E0742EF701208134
:10E5B0003181020F131FC3018C199D098217930724
:10E5C00010F491838083F701819091907F01F50190
:10E5D000619171915F01A401C6010E94BAFBC80C50
:10E5E000D91CE414F50411F70034110510F400E40B
:10E5F00010E0B8018CE991E066960FB6F894DEBFA2
:10E600000FBECDBFDF91CF911F910F91FF90EF9083
:10E61000DF90CF90BF90AF909F908F907F906F9042
:10E620005F904F90D3CE4F925F926F927F928F9276
:10E630009F92AF92BF92CF92DF92EF92FF920F9391
:10E640001F93CF93DF93CDB7DEB76A970FB6F894D9
:10E65000DEBF0FBECDBF2B013C01690185E490E018
:10E660009A838983C7014C969827892798279C838A
:10E670008B831E821D8280E490E098878F83506494
:10E680005427452754275A8749871C861B86609143
:10E6900036017091370180913801909139010E94C3
:10E6A000A2FB6D877E878F87988B498A5A8A6B8AEF
:10E6B0007C8A20E030E0A9016AE070E0CE0101969A
:10E6C000D5DE609570957C876B87BE016B5E7F4F52
:10E6D000CE014196F0D48823B9F0FF92EF92480121
:10E6E00058E0A52EB12C64E1E62EF12C8E010F5FCF
:10E6F0001F4F28E030E04D895E896F89788D898DC4
:10E700009A8DF2DE0F900F906A960FB6F894DEBFE6
:10E710000FBECDBFDF91CF911F910F91FF90EF9072
:10E72000DF90CF90BF90AF909F908F907F906F9031
:10E730005F904F900895E0E1F1E0118210823496ED
:10E7400081E0E833F807C9F708950F931F93CF933B
:10E75000DF93EC018B01AEDE009711F0FC0111C0DC
:10E76000E0E1F1E020E030E080819181892B81F4CB
:10E77000F901EE0FFF1FEE0FFF1FE25FFE4FD18387
:10E78000C08313830283DF91CF911F910F9108956E
:10E790002F5F3F4F34962A30310531F7DAD7CF92C9
:10E7A000DF92EF92FF920F931F93CF93DF9300D0EE
:10E7B00000D000D0CDB7DEB729833A834B835C838A
:10E7C0006D837E83CDB6DEB62DB73EB729503109B5
:10E7D0000FB6F8943EBF0FBE2DBFEDB7FEB7329611
:10E7E000EE7F9827892798279183808389819A8152
:10E7F00098278927982793838283C70108969827AB
:10E800008927982795838483178216826B817C8160
:10E810008D819E819F0141E150E005DF0FB6F894A4
:10E82000DEBE0FBECDBE26960FB6F894DEBF0FBE7D
:10E83000CDBFDF91CF911F910F91FF90EF90DF90AF
:10E84000CF9008952F923F924F925F926F927F9256
:10E850008F929F92AF92BF92CF92DF92EF92FF92F0
:10E860000F931F93CF93DF93CDB7DEB7A0970FB66B
:10E87000F894DEBF0FBECDBF5C012DB63EB68DB79E
:10E880009EB74F970FB6F8949EBF0FBE8DBF0DB7C2
:10E890001EB70C5F1F4F0C7F8091A8019091A901BA
:10E8A0009827892798278630A8E09A0709F0CDC0D5
:10E8B000BEE0AB1AB108ECE1AE16B10408F444C2F4
:10E8C0008091AA019091AB018115914009F03CC261
:10E8D0008091AC019091AD01089709F035C280910B
:10E8E000AE01863009F030C28091AF01843009F06A
:10E8F0002BC28091B0019091B10181159240D9F461
:10E900008091B8019091B901A091BA01B091BB0179
:10E9100089879A87AB87BC8786E0E2EBF1E0DE016E
:10E92000119601900D928A95E1F7BE016F5F7F4FBE
:10E93000CE0109964CD38091B0019091B10181151F
:10E94000914009F001C26091C2017091C3018091B0
:10E95000C4019091C501F6D669877A878B879C8719
:10E9600044E050E066E371E0CE010996F6D6892BCB
:10E9700009F0EAC186E0EAE3F1E0DE015B9601908E
:10E980000D928A95E1F78091AA019091AB01F8016F
:10E99000918380838091AC019091AD0193838283B8
:10E9A0008091AE0184838091AF01858380E092E005
:10E9B0009783868386E0FE017B96D80118960190A6
:10E9C0000D928A95E1F78091C2019091C301A091C7
:10E9D000C401B091C501F80186879787A08BB18BE0
:10E9E00086E0E2EBF1E0D801529601900D928A9513
:10E9F000E1F78091B8019091B901A091BA01B0916D
:10EA0000BB01F801808F918FA28FB38F86E0729641
:10EA1000DE01119601900D928A95E1F71F921F92E7
:10EA2000812C912CA12CB12CC12CD12C8CE1E82E65
:10EA3000F12C28E036E049815A816B817C818D81FF
:10EA40009E8152DD0F900F907FC18115984009F093
:10EA50007BC18091AA019091AB01982789279827C3
:10EA60009C01232F332722952F702430310509F084
:10EA70006BC1892F99278F709927059709F064C179
:10EA80008091B0019091B1019827892798279F73B1
:10EA9000892B09F059C146E050E060E071E08CE953
:10EAA00091E05BD68C0160913601709137018091C5
:10EAB00038019091390146D66B8F7C8F8D8F9E8F58
:10EAC00044E050E0BE01655E7F4F8AEB91E045D6A1
:10EAD000012B19F0892B09F037C162EA71E086EB4E
:10EAE00091E075D28091B30190E08130910509F4F5
:10EAF00074C0419709F028C14090B6015090B70109
:10EB00006090B8017090B901C090BA01D090BB017B
:10EB1000E090BC01F090BD0185010A521109A0905E
:10EB2000C001B090C101C501C5DC009709F40CC15A
:10EB30002091BE013091BF013227232732274B821B
:10EB40005C826D827E823A83298346E0FE013196A3
:10EB5000DE01559601900D924A95E1F73E8B2D8B83
:10EB600026E0FE017596DE011F9601900D922A9512
:10EB7000E1F7BA24AB24BA24CB82DC82ED82FE8298
:10EB8000BA82A98226E0FE013196DE011996019033
:10EB90000D922A95E1F7BA86A98626E0FE013996FC
:10EBA000DE01119601900D922A95E1F7DC01129693
:10EBB000ED91FC9113975801A6ECCA2EA1E0DA2E34
:10EBC000E980FA800B811C812D813E814F85588917
:10EBD00069897A898B899C89B6C04090B60150902A
:10EBE000B7016090B8017090B9018091BE01833087
:10EBF000B1F1883009F0A8C07501BAE2EB1AF1084A
:10EC000019821A821C821B828091C2019091C301D9
:10EC10009E838D838091C4019091C50198878F83D5
:10EC200020E030E0A90164E070E0CE0101961EDC36
:10EC30009B01AC01B7017695679586EC91E016DCF7
:10EC4000609570957C836B8306EC11E09E012F5FCD
:10EC50003F4F41E050E0C301B201E5DC75C0809157
:10EC6000BF01833009F070C08091CE019091CF0137
:10EC700098278927813109F067C00091DA01109146
:10EC8000DB01C80117DC009709F45EC04091D20196
:10EC90005091D3016091D4017091D5014B835C8375
:10ECA0006D837E831A83098326E0FE013196DE019F
:10ECB0001F9601900D922A95E1F7188B0F8726E099
:10ECC000FE013F96DE01559601900D922A95E1F7DF
:10ECD0002091DC013091DD014091D6015091D701A6
:10ECE0006091D8017091D9014B875C876D877E87D1
:10ECF0003A87298746E0FE013996DE011196019098
:10ED00000D924A95E1F73A83298326E0FE01319678
:10ED1000DE01199601900D922A95E1F7DC01129619
:10ED2000ED91FC911397A12CB12CC12CD12CE9842D
:10ED3000FA840B851C852D853E854D895E896F89FA
:10ED4000788D898D9A8D09950FB6F8943EBE0FBEC9
:10ED50002DBEA0960FB6F894DEBF0FBECDBFDF91DB
:10ED6000CF911F910F91FF90EF90DF90CF90BF90C8
:10ED7000AF909F908F907F906F905F904F903F905B
:10ED80002F9008951F920F920FB60F9211240BB679
:10ED90000F922F933F934F935F936F937F938F9334
:10EDA0009F93AF93BF93EF93FF936091090170918D
:10EDB0000A0180910B0190910C016F5F7F4F8F4F83
:10EDC0009F4F6093090170930A0180930B01909308
:10EDD0000C0126E030E040E050E092D4672B682B35
:10EDE000692B19F481E080930D01FF91EF91BF91A0
:10EDF000AF919F918F917F916F915F914F913F91D3
:10EE00002F910F900BBE0F900FBE0F901F90189573
:10EE10006F927F928F929F92AF92BF92CF92DF922A
:10EE2000EF92FF920F931F93CF93DF93CDB7DEB78F
:10EE30006DB67EB68DB79EB74F970FB6F8949EBF4E
:10EE40000FBE8DBF0DB71EB70C5F1F4F0C7F60E06C
:10EE500072E08CE991E02ADA009709F0F3DC809106
:10EE60000D01882309F456C010920D0160913601FE
:10EE700070913701809138019091390163D420E07D
:10EE800031E0D80111963C932E9348E050E0139660
:10EE90005C934E93129746E014964C93149754E06B
:10EEA00015965C93159717963C932E931697EAE365
:10EEB000F1E01896242F01900D922A95E1F7F801C0
:10EEC00066877787808B918B7296DF011D924A95BA
:10EED000E9F7F801608F718F828F938F1F921F92D5
:10EEE000812C912CA12CB12CC12CD12C9CE1E92E90
:10EEF000F12C28E036E04091000150910101609131
:10EF00000201709103018091040190910501ECDAF6
:10EF10000F900F900FB6F8947EBE0FBE6DBEDF91BE
:10EF2000CF911F910F91FF90EF90DF90CF90BF9006
:10EF3000AF909F908F907F906F900895E199FECF52
:10EF400080E090E037D48F3F09F510923A0180E8D5
:10EF500080933B018FE280933C0181E180933D01EE
:10EF600082E280933E0183E380933F0183E09AE055
:10EF7000A8EAB0EC8093360190933701A093380152
:10EF8000B093390181E080939B0110C046E050E0CE
:10EF900060E070E08AE391E0FDD344E050E066E099
:10EFA00070E086E391E0F6D310929B018AE391E052
:10EFB000F3D8C1DB81E080930D0108951092930195
:10EFC0001092920110929101109290010895AF92C7
:10EFD000BF92CF92DF92EF92FF920F931F93CF9346
:10EFE000DF93FB01A0919201B091930120E4A22E46
:10EFF00021E0B22E8D0120E030E02A173B07A9F076
:10F00000E501C880D980EA80FB80DAE0AD0EB11C52
:10F01000EC01488159816A817B81C416D506E606D8
:10F02000F70661F02F5F3F4FE8CFA830B10588F4B5
:10F030001196B0939301A093920118C02F3FDFEF78
:10F040003D0799F38AE0829FD001839FB00D112480
:10F0500020C0009190011091910198012F5F3F4FC6
:10F060002770332730939101209390014AE0409F0D
:10F070009001419F300D1124E901C05CDE4FDC019D
:10F080004D915D916D917C91488359836A837B8317
:10F09000D901AC5BBE4F86E001900D928A95E1F7F5
:10F0A000DF91CF911F910F91FF90EF90DF90CF9064
:10F0B000BF90AF900895CF92DF92EF92FF920F939F
:10F0C0001F93CF93DF936B01E0E4F1E0E0909201B6
:10F0D000F0909301C0E0D0E0CE15DF0529F100816A
:10F0E0001181228133813A96DC014D915D916D91C0
:10F0F0007C91041715072607370711F02196ECCFEE
:10F10000CF3FBFEFDB0781F08AE08C9FF0018D9F3E
:10F11000F00D1124EC5BFE4F86E0D60101900D92BC
:10F120008A95E1F781E001C080E0DF91CF911F91E6
:10F130000F91FF90EF90DF90CF900895CF92DF92E4
:10F14000EF92FF920F931F93CF93DF93CDB7DEB76C
:10F15000C951D1400FB6F894DEBF0FBECDBFC25F1C
:10F16000DE4F4883CE50D140C15FDE4F5883CF5031
:10F17000D140C05FDE4F6883C051D140CF5EDE4FCB
:10F180007883C151D140CE5EDE4F8883C251D140D9
:10F19000CD5EDE4F9883C351D140F601808581302A
:10F1A00071F582ED94E0A0E0B0E089839A83AB83AF
:10F1B000BC8384819581A681B7818D839E83AF8333
:10F1C000B88782E08987C45FDE4F19821882CC50ED
:10F1D000D1408DE0E82EFF24F3948E010F5F1F4F86
:10F1E0009A01AB01CE5EDE4F6881C251D140CD5E47
:10F1F000DE4F7881C351D14080E593ECD0DAC75E11
:10F20000DE4F0FB6F894DEBF0FBECDBFDF91CF91BA
:10F210001F910F91FF90EF90DF90CF900895CF92C4
:10F22000DF92EF92FF920F931F93CF93DF93CDB7AF
:10F23000DEB7C058D1400FB6F894DEBF0FBECDBFC9
:10F24000CB58DE4F4883C557D140CA58DE4F58834C
:10F25000C657D140C958DE4F6883C757D140C858F8
:10F26000DE4F7883C857D140C758DE4F8883C957CF
:10F27000D140C658DE4F9883CA57D140F60182ED7F
:10F2800094E0A0E0B0E089839A83AB83BC8384815F
:10F290009581A681B7818D839E83AF83B887C45F34
:10F2A000DE4F19821882CC50D14080819181A28199
:10F2B000B3810397A105B10509F041C0808588306D
:10F2C00009F03DC081E080939A0147E650E06FEF7E
:10F2D00070E0CE01825F9E4F56D247E650E060E07C
:10F2E00070E0CE01825F9E4F6DD289E089879DE0FC
:10F2F000E92EFF24F3948E010F5F1F4FCB58DE4F92
:10F300002881C557D140CA58DE4F3881C657D140F1
:10F31000C958DE4F4881C757D140C858DE4F588181
:10F32000C857D140C758DE4F6881C957D140C65829
:10F33000DE4F7881CA57D14083E593EC30DAC0586C
:10F34000DE4F0FB6F894DEBF0FBECDBFDF91CF9179
:10F350001F910F91FF90EF90DF90CF900895CF9382
:10F36000DF9300D000D0CDB7DEB744E050E064E6D4
:10F3700070E0CE0101960ED249815A812FEF3FEF06
:10F38000E0E0F0E0E417F50799F08491282768E0C1
:10F39000C9019695879520FF06C09C0171E027273B
:10F3A00070EA372701C09C01615091F73196EACF8E
:10F3B000309397012093960181E04B815C81241763
:10F3C000350709F080E00F900F900F900F90DF91BC
:10F3D000CF9108957F928F929F92AF92BF92CF92DA
:10F3E000DF92EF92FF920F931F93CF93DF93CDB7EE
:10F3F000DEB7C951D1400FB6F894DEBF0FBECDBF06
:10F40000C25FDE4F4883CE50D140C15FDE4F58838C
:10F41000CF50D140C05FDE4F6883C051D140CF5E36
:10F42000DE4F7883C151D140CE5EDE4F8883C2511A
:10F43000D140CD5EDE4F9883C351D140CC5EDE4FCC
:10F44000E882C451D140CB5EDE4FF882C551D14035
:10F45000CA5EDE4F0883C651D140C95EDE4F1883B5
:10F46000C751D140C85EDE4F2883C851D140C75E26
:10F47000DE4F3883C951D14082ED94E0A0E0B0E086
:10F4800089839A83AB83BC83F60184819581A681AD
:10F49000B7818D839E83AF83B887C45FDE4F1982A7
:10F4A0001882CC50D1408085883161F1C8F4863112
:10F4B00009F08FC081E080939A0110929901F601C2
:10F4C000818592859093970180939601E55FFE4F29
:10F4D00080819181909395018093940187E178C018
:10F4E0008A3109F461C08C3109F073C081E08093E6
:10F4F000990144E050E064E670E084E991E062D173
:10F500008DE166C0F601618572858601055F1F4F3A
:10F51000FFB6F894E199FECFCB01A0E0B0E023E084
:10F52000FC01A0935B0020936800E895209168009F
:10F5300020FDFCCF20E030E0EE24E394F801E20F60
:10F54000F31F70804901860E971EA12CB12C4181BA
:10F5500050E0542F4427470D511D0A01F401A09299
:10F560005B00E0926800E89511242E5F3F4F211563
:10F57000F1E03F0719F725E0FC01A0935B00209321
:10F580006800E8958091680080FDFCCF81E1809360
:10F590006800E895FFBE789489E18987F601818546
:10F5A00092859B878A8715C08BE18987F601218523
:10F5B0003285DE011C9680E090E0FC01E20FF31F33
:10F5C000E491ED9301968115F1E09F07B1F701C039
:10F5D00089874DE0E42EFF24F3948E010F5F1F4FC7
:10F5E000C25FDE4F2881CE50D140C15FDE4F3881EF
:10F5F000CF50D140C05FDE4F4881C051D140CF5E77
:10F60000DE4F5881C151D140CE5EDE4F6881C2517C
:10F61000D140CD5EDE4F7881C351D14082E593EC7D
:10F62000BED8C75EDE4F0FB6F894DEBF0FBECDBFAB
:10F63000DF91CF911F910F91FF90EF90DF90CF90CE
:10F64000BF90AF909F908F907F900895CF9388E167
:10F650000FB6F89481BD11BC0FBE81E085BF82E07A
:10F6600085BFF8940E9466F085E08EBD87B7846000
:10F6700087BF1DBC1CBC62DC6EE978EF80E593ECB3
:10F6800064D86AEE79EF82E593EC5FD86FE079EFAA
:10F6900083E593EC5AD8AD9AAE9AAF9AC1E08091C7
:10F6A0009901882329F05BDE811119C0109299011C
:10F6B00080919801811111C080919A0181110DC032
:10F6C0008CB59DB58C369E4E18F406B602FE05C06C
:10F6D000C093980144DE811102C09ADBE0CFAD985F
:10F6E000AE98AF981EBC17BE1DBC1CBC81E085BF88
:10F6F00015BEF8940C94000080E090E0CF9108953E
:10F70000A1E21A2EAA1BBB1BFD010DC0AA1FBB1F25
:10F71000EE1FFF1FA217B307E407F50720F0A21B97
:10F72000B30BE40BF50B661F771F881F991F1A9404
:10F7300069F760957095809590959B01AC01BD012E
:10F74000CF01089569279627692778278727782783
:10F75000089581E090E0F8944BC0FB01DC0104C007
:10F760008D910190801921F441505040C8F7881BB9
:10F77000990B0895FB01DC0102C001900D924150EC
:10F780005040D8F70895DC0101C06D9341505040BE
:10F79000E0F70895DC01CB01FC01E199FECF06C042
:10F7A000FFBBEEBBE09A31960DB20D924150504036
:10F7B000B8F70895E199FECF9FBB8EBBE09A9927D9
:10F7C0008DB30895DC01CB0102C02D9105D04150CD
:10F7D0005040D8F70895262FE199FECF9FBB8EBBEE
:10F7E0002DBB0FB6F894E29AE19A0FBE01960895E8
:04F7F000F894FFCFBB
:06F7F400FFFFFFFFFFFF15
:040000031000E00009
:00000001FF
