:1000000045C0000061C000005FC000005DC000008E
:100010005BC0000059C0000057C0000055C0000080
:1000200053C0000051C000004FC000004DC0000090
:100030004BC0000049C00000F4C7000045C00000EC
:1000400043C0000041C000003FC000003DC00000B0
:100050003BC0000039C0000037C0000035C00000C0
:1000600033C0000031C000002FC000002DC00000D0
:100070002BC000002AC000000C94120F25C0000005
:1000800023C0000021C000001FC0000011241FBEBB
:10009000CFEFD0E1DEBFCDBF11E0A0E0B1E0E2E6FE
:1000A000FFE100E00BBF02C007900D92A035B10741
:1000B000D9F714E0A0E5B1E001C01D92A43FB1075B
:1000C000E1F722D00C94AF0F9BCF1F920F920090BC
:1000D0005F000F9211248F939F93CF93DF93CDB73F
:1000E000DEB7809151019091520101969093520197
:1000F00080935101DF91CF919F918F910F9000924A
:100100005F000F901F901895CF93DF93CDB7DEB7A8
:10011000F89485E590E021E0FC01208385E590E0FE
:10012000FC0110821092990110929801109297018F
:1001300010929601109295011092940175D2CDD132
:100140000E94D10B0E94EF086BE779E080E593EC09
:10015000DBD36AE07BE081E593ECD6D38EE490E0DC
:1001600025E0FC01208387E590E027E530E0F901F8
:1001700020812460FC0120838CE490E0FC0111824A
:1001800010828AE890E021E4FC0120838DE790E072
:100190002DE730E0F90120812460FC01208388E80C
:1001A00090E0FC011182108280E890E0FC01118255
:1001B00010820E945B09789480E390E0FC018081CA
:1001C000882F90E08071992721E0009709F420E0C2
:1001D0002093980110925C0110925B0181E090E005
:1001E0009093010180930001F89480E890E0FC0175
:1001F0008081918190935A01809359017894109253
:1002000056011092550183E390E0FC018081882F14
:1002100090E08270992721E0009709F420E0822F76
:1002200090E09093970180939601F89480E890E095
:10023000FC018081918190935801809357018091B6
:1002400051019091520190935401809353017894FD
:1002500020915701309158018091590190915A0194
:100260002817390771F0F89488E890E0FC011182B2
:1002700010821092520110925101789481E0809383
:10028000990180915301909154018530910510F0AE
:10029000109299019091980181E08927882359F063
:1002A0009091990181E08927882329F01092950186
:1002B0001092940131C080919801882369F0909147
:1002C000990181E08927882339F081E090E09093BB
:1002D00095018093940120C09091980181E0892735
:1002E000882359F080919901882339F082E090E0C9
:1002F00090939501809394010FC080919601909105
:100300009701009719F481E090E002C082E090E04C
:1003100090939501809394012091940130919501DF
:1003200080915B0190915C012817390759F4209165
:100330009601309197018091000190910101281759
:10034000390749F08091960190919701009711F437
:10035000B6D701C0C2D78091940190919501909336
:100360005C0180935B01809196019091970190933D
:100370000101809300018091570190915801909361
:100380005A018093590180915301909154019093A7
:100390005601809355018BD636CF9BB321E030E0D8
:1003A000082E01C0220F0A94EAF7922B9BBB0895F6
:1003B000CF92DF92EF92FF92CF93DF936B017C019C
:1003C000D998C0E0D0E009C0DA98000080E0E5DF0D
:1003D000D8982196C032D10579F0D701C6010C2EEC
:1003E00004C0B695A795979587950A94D2F780FF94
:1003F000EBCF82E0D2DFE9CF81E0DF91CF91FF90B8
:10040000EF90DF90CF90C9CFCF92DF92EF92FF9223
:10041000C12CD12C7601E0E0F0E0892B89F5EE0FBC
:10042000FF1FEE0FFF1FEA5DFE4F60817181828129
:100430009381660F771F881F991F660F771F881F8C
:10044000991F660F771F881F991F660F771F881FD8
:10045000991F6C297D298E299F29AADFF6013196E3
:100460008FEFC81AD80AE80AF80A89E0C816D1043A
:10047000E104F104A1F6FF90EF90DF90CF90089592
:10048000EE0FFF1FEE0FFF1FEE5FFE4F60817181C9
:1004900082819381660F771F881F991F660F771FD0
:1004A000881F991F660F771F881F991F660F771F78
:1004B000881F991F6C297D298E299F2979DFF601D4
:1004C00031968FEFC81AD80AE80AF80A89E0C816E8
:1004D000D104E104F104A1F6CECF81E05EDFDC9827
:1004E00080EB96E3000001970097E1F784E055DF89
:1004F00080EB96E3000001970097E1F7DD9880EB31
:1005000096E3000001970097E1F785E046DF80EB76
:1005100096E3000001970097E1F70895CF92DF92EC
:10052000EF92FF92CF9382959295907F9827807F4C
:10053000982799278E60BC0180E090E039DF81E048
:100540002CDFD898DA98D998C0E2C12CD12C76014A
:10055000F694E794D794C79480E01FDF0000CB9B0C
:1005600002C06894F7F8D898C15091F781E015DF80
:10057000C701B601F4E09695879577956795FA954A
:10058000D1F7CF91FF90EF90DF90CF900895440F77
:10059000551F661F771F440F551F661F771F440F97
:1005A000551F661F771F440F551F661F771FA0E05A
:1005B000B0E0482B592B6A2B7B2BCB01BA01F8CE2C
:1005C0000F931F938B01892BC1F0CB01A7DFF8019B
:1005D000EE0FFF1FEE0FFF1FEE5FFE4F41E00081A9
:1005E000118122813381061717072807390709F07F
:1005F00040E0842F1F910F910895CB018FDFF80108
:10060000EE0FFF1FEE0FFF1FEA5DFE4F41E000817E
:10061000118122813381061717072807390741F70F
:10062000842F1F910F91089582E28BBB87E78ABBCD
:1006300081E688BB87EF87BB15BA8DEF84BB12BA02
:1006400088E081BB13B882E082B9109262008FEF1C
:100650008093610008954F925F926F927F928F9284
:100660009F92AF92BF92CF92DF92EF92FF920F9341
:100670001F93CF93DF93CDB7DEB766970FB6F8948D
:10068000DEBF0FBECDBF498B5A8B6B8B7C8B8D8BA6
:100690009E8B89A59AA54DB75EB74F5051090FB6ED
:1006A000F8945EBF0FBE4DBF6DB77EB76E5F7F4FD4
:1006B0006E7F46E0FE017196DB0101900D924A9536
:1006C000E1F746E0EEE8F1E0DB01169601900D92CD
:1006D0004A95E1F7FB01358724877A8769871C876C
:1006E0000B87DE86CD86988A8F862EE030E03A83AF
:1006F0002983FC82EB82BE82AD8298878F8392EF42
:10070000692E93E0792E6E01F3E0CF0ED11C4E01DD
:1007100049E0840E911C2E015BE0450E511C0EE059
:1007200010E0A12CB12C22EFE22E21E0F22EA00E3F
:10073000B11EC3018E199F098017910728F4F60195
:100740003297918380838C01A801C7010E94780FA2
:10075000E00EF11EC814D90449F0F601019111917F
:100760006F01F201619171912F01E1CFF0E4AF16B9
:10077000B10418F480E4A82EB12CB50182EF91E009
:1007800066960FB6F894DEBF0FBECDBFDF91CF9156
:100790001F910F91FF90EF90DF90CF90BF90AF909F
:1007A0009F908F907F906F905F904F900C94A20ECF
:1007B0008F929F92AF92BF92CF92DF92EF92FF9271
:1007C0000F931F93CF93DF93CDB7DEB76A970FB622
:1007D000F894DEBF0FBECDBF4B015C01690185E41B
:1007E00090E09A838983C7014C9698278927982798
:1007F0009C838B831E821D8280E490E098878F8388
:1008000050645427452754275A8749871C861B86DE
:1008100060918A0170918B0180918C0190918D0182
:100820000E94600F6D877E878F87988B898A9A8A4E
:10083000AB8ABC8AFE0133969E012B5E3F4F45E496
:1008400050E080E090E0DC0102C041915191840FC2
:10085000951FA11DB11DE217F307B9F7AD0166277A
:100860007727411551056105710571F0AA27BB274E
:10087000840F951FA61FB71FAD0166277727411567
:1008800051056105710591F7809590959C878B873F
:10089000B901CE0141960E94880C811113C06A965D
:1008A0000FB6F894DEBF0FBECDBFDF91CF911F9181
:1008B0000F91FF90EF90DF90CF90BF90AF909F90FF
:1008C0008F900895FF92EF92480138E0A32EB12C4B
:1008D00044E1E42EF12C8E010F5F1F4F28E030E041
:1008E0004D895E896F89788D898D9A8DB4DE0F90E0
:1008F0000F90D5CFE4E6F1E011821082349681E0CA
:10090000EC38F807C9F70895B82FA92FE2E6F1E00F
:1009100020E030E040815181A417B507B1F02F5F8E
:100920003F4F34962A303105A9F7E4E6F1E020E0A4
:1009300030E040815181452BA1F02F5F3F4F34962D
:100940002A303105B1F70E94670FF901EE0FFF1F42
:10095000EE0FFF1FEE59FE4F309739F3738362831A
:100960000895F901EE0FFF1FEE0FFF1FEE59FE4F26
:1009700091838083F3CFCF92DF92EF92FF920F9318
:100980001F93CF93DF9300D000D000D0CDB7DEB758
:1009900029833A834B835C836D837E83CDB6DEB639
:1009A0002DB73EB7295031090FB6F8943EBF0FBEA0
:1009B0002DBFEDB7FEB73296EE7F9827892798278F
:1009C0009183808389819A819827892798279383A7
:1009D0008283C7010896982789279827958384835F
:1009E000178216826B817C818D819E819F0141E1FE
:1009F00050E0DEDE0FB6F894DEBE0FBECDBE26960A
:100A00000FB6F894DEBF0FBECDBFDF91CF911F911F
:100A10000F91FF90EF90DF90CF9008952F923F922B
:100A20004F925F926F927F928F929F92AF92BF92FE
:100A3000CF92DF92EF92FF920F931F93CF93DF93AA
:100A4000CDB7DEB7A0970FB6F894DEBF0FBECDBF0F
:100A50007C016DB67EB68DB79EB74F970FB6F894F2
:100A60009EBF0FBE8DBF0DB71EB70C5F1F4F0C7F13
:100A70008091FE019091FF01982789279827863061
:100A8000A8E09A0709F4FBC081159840F1F00FB671
:100A9000F8947EBE0FBE6DBEA0960FB6F894DEBF72
:100AA0000FBECDBFDF91CF911F910F91FF90EF90BF
:100AB000DF90CF90BF90AF909F908F907F906F907E
:100AC0005F904F903F902F900895809100029091F9
:100AD00001029827892798279C01232F33272295E5
:100AE0002F702430310599F6892F99278F70992717
:100AF000059769F680910602909107029827892749
:100B000098279F73892B19F646E050E06AE471E05C
:100B100082EF91E00E946B0F8C0160918A017091CD
:100B20008B0180918C0190918D010E94600F6B8FE1
:100B30007C8F8D8F9E8F44E050E0BE01655E7F4FBD
:100B400080E192E00E946B0F012B19F0892B09F0D4
:100B50009ECF68EF71E08CE092E046D6809109026A
:100B600090E08130910509F43CC1419709F08FCFA5
:100B700020900C0230900D0240900E0250900F0217
:100B80004091100250911102609112027091130273
:100B900057012AE2A21AB1082091160230911702D9
:100BA000322723273227E2E6F1E080E090E006C01A
:100BB000019634968A30910509F469CFA081B181FC
:100BC0002A173B07A9F7880F991F880F991F8E597D
:100BD0009E4F009709F45BCF00911402109115020B
:100BE0001027012710272B823C824D825E821A83B8
:100BF0000983A6E0FA2EFE013196DE01559601909A
:100C00000D92FA94E1F71E8B0D8B16E0FE0175969E
:100C1000DE01199601900D921A95E1F74B835C83E2
:100C20006D837E833A83298346E0FE013196DE019F
:100C30001F9601900D924A95E1F7388B2F8726E099
:100C4000FE013F96DE01119601900D922A95E1F783
:100C5000DC011296ED91FC911397BCE1CB2EB2E032
:100C6000DB2EE980FA800B811C812D813E81498534
:100C70005A856B857C858D859E85099508CFBEE05C
:100C8000EB1AF108ECE1EE16F10408F400CF8091C4
:100C90000002909101028115914009F0F8CE8091F7
:100CA000020290910302089709F0F1CE80910402AC
:100CB000863009F0ECCE80910502843009F0E7CE51
:100CC0008091060290910702811522E0920709F4B3
:100CD0001FC18115914009F0DACE60911802709120
:100CE000190280911A0290911B020E94600F69877D
:100CF0007A878B879C8744E050E06AE871E0CE01F8
:100D000009960E946B0F892B09F0C1CE86E0EEE8B0
:100D1000F1E0DE015B9601900D928A95E1F78091FA
:100D2000000290910102F801918380838091020278
:100D30009091030293838283809104028483809143
:100D40000502858380E092E09783868386E0FE013A
:100D50007B96D801189601900D928A95E1F78091C3
:100D6000180290911902A0911A02B0911B02F80189
:100D700086879787A08BB18B86E0E8E0F2E0D80108
:100D8000529601900D928A95E1F780910E02909112
:100D90000F02A0911002B0911102F801808F918F83
:100DA000A28FB38F86E07296DE01119601900D92AC
:100DB0008A95E1F71F921F92812C912CA12CB12CC6
:100DC000C12CD12C5CE1E52EF12C28E036E04981E4
:100DD0005A816B817C818D819E813DDC0F900F90CB
:100DE00056CE60910C0270910D0280910E0290918E
:100DF0000F0220911402233009F466C0283009F054
:100E000046CEBAE2EB1AF10819821A824091180212
:100E1000509119025E834D8320911A0230911B027A
:100E200038872F8389809A80A12CB12C840E951E3F
:100E3000A11CB11C820E931EA11CB11C850122278E
:100E40003327011511052105310571F0AA24BB24B2
:100E5000800E911EA21EB31E850122273327011585
:100E600011052105310591F7D701B695A795109782
:100E7000C9F0ECE1F2E020E030E041915191840EC4
:100E8000951EA11CB11C2F5F3F4F2A173B07A9F7E6
:100E900006C0AA24BB24800E911EA21EB31E85018B
:100EA00022273327011511052105310591F780947B
:100EB00090949C828B820CE112E09E012F5F3F4F49
:100EC00041E050E075DCE3CD80911502833009F0FC
:100ED000DECD8091240290912502982789278131C7
:100EE00009F0D5CD4091300250913102942F852FD9
:100EF000E2E6F1E020E030E060817181861797073B
:100F000039F12F5F3F4F34962A303105A9F7BFCD15
:100F100080910E0290910F02A0911002B0911102E7
:100F200089879A87AB87BC8786E0E8E0F2E0DE013C
:100F3000119601900D928A95E1F7BE016F5F7F4F88
:100F4000CE01099651D48091060290910702C1CE3C
:100F5000220F331F220F331F2E593E4F211531050B
:100F600009F495CD8091280290912902A0912A023E
:100F7000B0912B028B879C87AD87BE875A874987A4
:100F800086E0FE013996DE01119601900D928A9558
:100F9000E1F75A83498386E0FE013196DE015596DA
:100FA00001900D928A95E1F74091320250913302FF
:100FB00080912C0290912D02A0912E02B0912F02CF
:100FC000898B9A8BAB8BBC8B588B4F8786E0FE014D
:100FD0003F96DE01199601900D928A95E1F75A87A6
:100FE000498786E0FE013996DE011F9601900D9239
:100FF0008A95E1F7D9011296ED91FC911397A12CF6
:10100000B12CC12CD12CEF84F88809891A892B893D
:101010003C894D895E896F89788D898D9A8D099576
:1010200036CD1F920F920FB60F9211240BB60F926E
:101030002F933F934F935F936F937F938F939F93E0
:10104000AF93BF93EF93FF9360915D0170915E0149
:1010500080915F01909160016F5F7F4F8F4F9F4F35
:1010600060935D0170935E0180935F0190936001D6
:1010700026E030E040E050E001D7672B682B692B79
:1010800019F481E080936101FF91EF91BF91AF91DD
:101090009F918F917F916F915F914F913F912F9190
:1010A0000F900BBE0F900FBE0F901F9018956F9270
:1010B0007F928F929F92AF92BF92CF92DF92EF92E8
:1010C000FF920F931F93CF93DF93CDB7DEB76DB62B
:1010D0007EB68DB79EB74F970FB6F8949EBF0FBEE2
:1010E0008DBF0DB71EB70C5F1F4F0C7F60E072E025
:1010F00082EF91E07FD5009709F06FC08091610188
:10110000882309F456C01092610160918A017091A0
:101110008B0180918C0190918D01D2D620E031E03D
:10112000D80111963C932E9348E050E013965C93BF
:101130004E93129746E014964C93149754E01596EC
:101140005C93159717963C932E931697EEE8F1E073
:101150001896242F01900D922A95E1F7F8016687E1
:101160007787808B918B7296DF011D924A95E9F704
:10117000F801608F718F828F938F1F921F92812C45
:10118000912CA12CB12CC12CD12C6CE1E62EF12C90
:1011900028E036E040914A0150914B0160914C01AA
:1011A00070914D0180914E0190914F0154DA0F9052
:1011B0000F900FB6F8947EBE0FBE6DBEDF91CF913B
:1011C0001F910F91FF90EF90DF90CF90BF90AF9065
:1011D0009F908F907F906F90089520DC8FCFE19942
:1011E000FECF80E090E09DD68F3F01F146E050E0D9
:1011F00060E070E08EE891E084D644E050E066E084
:1012000070E08AE891E07DD61092F1018EE891E0DD
:1012100019D4E4E6F1E011821082349681E0EC38D2
:10122000F807C9F781E080936101089510928E015B
:1012300080E880938F018FE28093900181E1809319
:10124000910182E28093920183E38093930183E092
:101250009AE0A8EAB0EC80938A0190938B01A09366
:101260008C01B0938D0181E08093F101CFCFAD9AD5
:10127000AE98AF9AF89480E090E0C6D87894DE9A61
:101280000895AD98AE9AAF9AF89481E090E0BCD8FA
:101290007894DE98089520E230E001C0220F8A950C
:1012A000EAF785B3611104C02095282325BB089572
:1012B000822B85BB0895AD98AE98AF980895809124
:1012C0009801811108C080919901811105C0AD98E4
:1012D000AE98AF980895CBCFD4CF8091990181116A
:1012E00008C080919801811105C0AD98AE98AF9863
:1012F0000895C7CFBCCFCF92DF92EF92FF920F93AA
:101300001F93CF93DF93CDB7DEB7C054D1400FB654
:10131000F894DEBF0FBECDBFCB5CDE4F4883C55314
:10132000D140CA5CDE4F5883C653D140C95CDE4F02
:101330006883C753D140C85CDE4F7883C853D1401F
:10134000C75CDE4F8883C953D140C65CDE4F9883AB
:10135000CA53D140C55CDE4FE882CB53D140C45C58
:10136000DE4FF882CC53D140C35CDE4F0883CD53AF
:10137000D140C25CDE4F1883CE53D140C15CDE4FFA
:101380002883CF53D140C05CDE4F3883C054D14056
:10139000F60183E090E0A0E0B0E089839A83AB831C
:1013A000BC8384819581A681B7818D839E83AF8321
:1013B000B8872085213009F4DBC080819181A2812A
:1013C000B3810397A105B10581F0C05CDE4F0FB674
:1013D000F894DEBF0FBECDBFDF91CF911F910F916B
:1013E000FF90EF90DF90CF900895253009F4DFC093
:1013F00008F47BC02A30B1F12C3039F78DE08987B1
:101400009DE0E92EFF24F3948E010F5F1F4FCB5C0C
:10141000DE4F2881C553D140CA5CDE4F3881C653A8
:10142000D140C95CDE4F4881C753D140C85CDE4F14
:101430005881C853D140C75CDE4F6881C953D14041
:10144000C65CDE4F7881CA53D14080E593EC93DAD5
:1014500029E088E190E00FB6F894A89581BD0FBE11
:1014600021BDFFCF8BE0898784E090E0C45FDE4F31
:1014700099838883CC50D140809199018C87809149
:1014800098018D8780919401909195018E8780912C
:101490009601909197018F878DE0E82EFF24F394B9
:1014A0008E010F5F1F4FCB5CDE4F2881C553D140AB
:1014B000CA5CDE4F3881C653D140C95CDE4F4881DB
:1014C000C753D140C85CDE4F5881C853D140C75C78
:1014D000DE4F6881C953D140C65CDE4F7881CA5364
:1014E000D14080E593EC47DA70CF233009F06DCF1F
:1014F00084E0898787E290E0C45FDE4F9983888328
:10150000CC50D140E199FECF47E250E060E070E07E
:10151000CE010C96F6D48091F101882319F11C8636
:1015200080E88D878FE28E8781E18F8782E2888BCA
:1015300083E3898B83E09AE0A8EAB0EC8A8B9B8BEB
:10154000AC8BBD8B81E09AE0A8EAB0EC8E8B9F8BD0
:10155000A88FB98F80E09FEFAFEFBFEF8A8F9B8F8F
:10156000AC8FBD8F8AA98F3F09F096CF1AAA94CF6E
:1015700082E08987C45FDE4F19821882CC50D14047
:101580002DE0E22EFF24F3948E010F5F1F4F9A018E
:10159000AB01C75CDE4F6881C953D140C65CDE4FEA
:1015A0007881CA53D14080E593ECE5D90ECFD601BE
:1015B000A55FBE4F8D919C91879719F087E0898731
:1015C0006BCF8601055F1F4FC45FDE4F1982188203
:1015D000CC50D140E199FECF47E250E060E070E0AE
:1015E000C801A7D4E199FECF47E250E060E070E087
:1015F000CE01825F9E4F85D447E250E0B801CE0114
:10160000825F9E4F68D4882319F087E0898744CF92
:1016100086E0FCCFCF92DF92EF92FF920F931F9361
:10162000CF93DF93CDB7DEB7C951D1400FB6F89451
:10163000DEBF0FBECDBFC25FDE4F4883CE50D1406C
:10164000C15FDE4F5883CF50D140C05FDE4F68830B
:10165000C051D140CF5EDE4F7883C151D140CE5EC4
:10166000DE4F8883C251D140CD5EDE4F9883C35197
:10167000D140F60143E050E060E070E049835A83D6
:101680006B837C8344815581668177814D835E8342
:101690006F83788740815181628173814330510526
:1016A0006105710581F0C75EDE4F0FB6F894DEBFAD
:1016B0000FBECDBFDF91CF911F910F91FF90EF90A3
:1016C000DF90CF9008958085803109F454C008F4EC
:1016D0003FC0823109F45CC0843129F785E18987F4
:1016E0008091F2039091F3039B878A8780E0E4EF77
:1016F000F3E0DE011C9601900D928A95E1F73DE042
:10170000E32EFF24F3948E010F5F1F4FC25FDE4F65
:101710002881CE50D140C15FDE4F3881CF50D140BB
:10172000C05FDE4F4881C051D140CF5EDE4F58814F
:10173000C151D140CE5EDE4F6881C251D140CD5EF5
:10174000DE4F7881C351D14081E593EC14D9ABCF02
:101750008E3009F0A8CFD601A55FBE4F6C91C601AF
:101760000B964DD38FE08987C45FDE4F19821882B4
:10177000CC50D140C4CF81E18987C45FDE4F19824C
:101780001882CC50D14080E091E09B878A87B7CF08
:1017900083E189878091F2039091F3039B878A8785
:1017A000AECF88E980939A0086E080939D001092E6
:1017B000980083E080939900089580919B0087FFB3
:1017C000FCCF80919C00089590919B0095FFFCCFE9
:1017D00080939C0008951092ED011092EC011092FC
:1017E000EB011092EA010895CF92DF92EF92FF92FF
:1017F0000F931F93CF93DF936B01A091EC01B091F6
:10180000ED01109709F47CC0FC0100811181228157
:10181000338140919A0150919B0160919C0170919C
:101820009D01401751076207730709F453C064EA2A
:10183000E62E61E0F62EC0E0D0E00FC0FAE0EF0E39
:10184000F11CF7013A974081518162817381401701
:1018500051076207730709F43FC02196CA17DB07D7
:1018600069F7289708F44CC0A091EA01B091EB0108
:101870009D012F5F3F4F277033273093EB0120935B
:10188000EA019D01220F331FAA0FBB1FAA0FBB1F26
:10189000AA0FBB1F2A0F3B1FE901C656DE4FFC01F2
:1018A00080819181A281B38188839983AA83BB833C
:1018B000D901A256BE4F86E0F60101900D928A959D
:1018C000E1F7DF91CF911F910F91FF90EF90DF90A3
:1018D000CF900895C0E0D0E0DE01AA0FBB1FCC0F6F
:1018E000DD1FCC0FDD1FCC0FDD1FAC0FBD1FA256BF
:1018F000BE4F86E0F60101900D928A95E1F7E1CFA7
:101900009D012F5F3F4F3093ED012093EC01B9CF44
:101910000F931F93CF93DF939B01E091EC01F09124
:10192000ED01309749F1DC014D915D916D917C9114
:1019300080919A0190919B01A0919C01B0919D0191
:1019400084179507A607B707E9F004EA11E0C0E09D
:10195000D0E00EC0065F1F4FD8011A978D919D9160
:101960000D90BC91A02D84179507A607B70761F0CD
:101970002196CE17DF0771F780E0DF91CF911F919D
:101980000F910895C0E0D0E0FE01EE0FFF1FCC0FD5
:10199000DD1FCC0FDD1FCC0FDD1FEC0FFD1FE2564E
:1019A000FE4F86E0D90101900D928A95E1F781E022
:1019B000DF91CF911F910F910895C098962F9F713D
:1019C000982B9FB9779BFECF1FB8779BFECF67FD03
:1019D00003C0C09A8FB108951FB8779BFECFC09AFD
:1019E0008FB10895C0986F71682B6FB9779BFECF48
:1019F0004FB9779BFECFC09A08951F93CF93DF9383
:101A0000182F1076C12FD0E02091F00130E0C217DE
:101A1000D307A1F043E06FE180EAE4DFAE01559522
:101A2000479555954795559547955595479555959E
:101A300047956FE180E8D6DF1093F001DF91CF91F9
:101A40001F9108950F931F93CF93DF931F92CDB7EC
:101A5000DEB78C01B89AC09A87B3866087BBBB9803
:101A6000C298C19880E58DB9709A4FEF60E08FEF12
:101A7000B9DF1092EF011092EE0188E0BEDF40E086
:101A800068E080E4AFDF89E0B8DF40E069E080E44F
:101A9000A9DF8AE0B2DF4EEF6AE080E4A3DF8BE0EB
:101AA000ACDF49E16BE080E49DDF84E0A6DF4FEF2F
:101AB00064E080E497DF85E0A0DF49E165E080E451
:101AC00091DF86E09ADF4FEF66E080E48BDF87E00E
:101AD00094DF4FE167E080E485DF88E38EDF41EB50
:101AE00068E380E47FDF88E288DF4FE368E280E438
:101AF00079DF89E282DF40E369E280E473DF80E33B
:101B00007CDF49EF60E380E46DDF81E376DF47EF60
:101B100061E380E467DF80EC70DF4DE060EC80E43F
:101B200061DF81EC6ADF40E061EC80E45BDF42E38F
:101B300062EC80E857DF86EC60DF42E166EC80E42F
:101B400051DF87EC5ADF4CE067EC80E44BDF84EC3C
:101B500054DF42E164EC80E445DF8AEC4EDF4CED7B
:101B60006AEC80E43FDF8BEC48DF45E06BEC80E41F
:101B700039DFF801408184EE49833FDF498164EE1B
:101B800080E430DFF801418185EE498336DF498109
:101B900065EE80E427DFF801428182EE49832DDF84
:101BA000498162EE80E41EDFF801438183EE4983C0
:101BB00024DF498163EE80E415DFF801448180EE83
:101BC00049831BDF498160EE80E40CDFF801458129
:101BD00081EE498312DF498161EE80E403DF8FE10A
:101BE0000CDF44E06FE180E80F90DF91CF911F910F
:101BF0000F91F8CEBF92CF92DF92EF92FF920F93A8
:101C00001F93CF93DF93EC017B0189E3F6DE69E359
:101C100080E0D3DE81110CC080E090E0DF91CF91B5
:101C20001F910F91FF90EF90DF90CF90BF9008959C
:101C30000091EE011091EF0180E0DFDEA801552751
:101C400060E080E4CFDE81E0D8DE412F61E080E417
:101C5000C9DE60E08AE3B1DE082F60E08AE3ADDE32
:101C600010E0182B1093EF010093EE0160E08AE37F
:101C7000A4DEB82E60E08AE3A0DEC82E60E08AE32E
:101C80009CDED82E60E08AE398DED7FC35C0E80100
:101C900000E010E08CE0B1DEAE0155276CE080E49E
:101CA000A1DE8DE0AADE4D2F6DE080E49BDE219762
:101CB000CF3F89E1D80798F48CE09FDEAE0155272D
:101CC0006CE080E48FDE8DE098DE4D2F6DE080E4E7
:101CD00089DE40E46EE180E885DEC8019FCF8CE0BC
:101CE0008CDE4EEF6CE080E47DDE8DE086DE49E147
:101CF0006DE080E477DEEDCFC0988AE38FB9779B03
:101D0000FECF81E0E81AF1080B2D10E01C290450E9
:101D10001109E016F10608F48701FE01011511050D
:101D200051F0E00FF11F1FB8779BFECF8FB1899361
:101D3000CE17DF07C1F71082C09AC091EE01D09193
:101D4000EF01A8CFEF92FF920F931F93CF93DF93F2
:101D5000EC018B0107C08CE150DE6CE180E02DDEF0
:101D600081FD44C06FE180E028DE83FDF4CF82E096
:101D700044DE4FEF62E080E435DE83E03EDE49E1A1
:101D800063E080E42FDE86E038DE780181E0E81A47
:101D900086EEF80AA701552766E080E423DE87E097
:101DA0002CDE4F2D67E080E41DDE40E060E08AE736
:101DB00019DEC0988AE78FB9779BFECF0115110510
:101DC00051F0BE01600F711F89918FB9779BFECFD3
:101DD000C617D707C9F7C09A48E06FE180E8DF91DE
:101DE000CF911F910F91FF90EF90FCCD40E86FE1F4
:101DF00080E8F8DD40E86FE180EAF4DDB3CF0F93CF
:101E00001F93CF93DF93062F662339F0EC0110E088
:101E10008991DADC1F5F1013FBCFDF91CF911F9107
:101E20000F9108951F920F920FB60F9211240BB6C7
:101E30000F928F939F93EF93FF938091F303909171
:101E40009C00E82FF0E0EC50FC4F90838F3F71F046
:101E50008F5F8093F303FF91EF919F918F910F908C
:101E60000BBE0F900FBE0F901F9018958091F2033C
:101E70008F5F8093F2031092F303EDCFA1E21A2E4D
:101E8000AA1BBB1BFD010DC0AA1FBB1FEE1FFF1F1E
:101E9000A217B307E407F50720F0A21BB30BE40B6E
:101EA000F50B661F771F881F991F1A9469F76095B5
:101EB0007095809590959B01AC01BD01CF0108956F
:101EC000692796276927782787277827089581E04B
:101ED00090E0F89444C0FB01DC0104C08D910190B6
:101EE000801921F441505040C8F7881B990B089580
:101EF000FB01DC0102C001900D9241505040D8F727
:101F00000895DC01CB01FC01E199FECF06C0FFBBC7
:101F1000EEBBE09A31960DB20D9241505040B8F7A9
:101F20000895E199FECF9FBB8EBBE09A99278DB3B0
:101F30000895DC01CB0102C02D9105D041505040E5
:101F4000D8F70895262FE199FECF9FBB8EBB2DBBFE
:101F50000FB6F894E29AE19A0FBE01960895F894AC
:021F6000FFCFB1
:101F620001002000540120005401200054012000EF
:101F72005401200054019B010000001000010000E8
:101F820040018001000000005401000054010000E3
:101F920054010000540100005401D4090000001053
:101FA20000010000400180010000FFFFFFFFFFFF72
:00000001FF
